{
    "_format": "hh-sol-artifact-1",
    "contractName": "RafiquiTracker",
    "sourceName": "contracts/RafiquiTracker.sol",
    "abi": [
        {
            "inputs": [],
            "stateMutability": "nonpayable",
            "type": "constructor"
        },
        {
            "inputs": [
                {
                    "internalType": "address",
                    "name": "sender",
                    "type": "address"
                },
                {
                    "internalType": "uint256",
                    "name": "tokenId",
                    "type": "uint256"
                },
                {
                    "internalType": "address",
                    "name": "owner",
                    "type": "address"
                }
            ],
            "name": "ERC721IncorrectOwner",
            "type": "error"
        },
        {
            "inputs": [
                {
                    "internalType": "address",
                    "name": "operator",
                    "type": "address"
                },
                {
                    "internalType": "uint256",
                    "name": "tokenId",
                    "type": "uint256"
                }
            ],
            "name": "ERC721InsufficientApproval",
            "type": "error"
        },
        {
            "inputs": [
                {
                    "internalType": "address",
                    "name": "approver",
                    "type": "address"
                }
            ],
            "name": "ERC721InvalidApprover",
            "type": "error"
        },
        {
            "inputs": [
                {
                    "internalType": "address",
                    "name": "operator",
                    "type": "address"
                }
            ],
            "name": "ERC721InvalidOperator",
            "type": "error"
        },
        {
            "inputs": [
                {
                    "internalType": "address",
                    "name": "owner",
                    "type": "address"
                }
            ],
            "name": "ERC721InvalidOwner",
            "type": "error"
        },
        {
            "inputs": [
                {
                    "internalType": "address",
                    "name": "receiver",
                    "type": "address"
                }
            ],
            "name": "ERC721InvalidReceiver",
            "type": "error"
        },
        {
            "inputs": [
                {
                    "internalType": "address",
                    "name": "sender",
                    "type": "address"
                }
            ],
            "name": "ERC721InvalidSender",
            "type": "error"
        },
        {
            "inputs": [
                {
                    "internalType": "uint256",
                    "name": "tokenId",
                    "type": "uint256"
                }
            ],
            "name": "ERC721NonexistentToken",
            "type": "error"
        },
        {
            "inputs": [
                {
                    "internalType": "address",
                    "name": "owner",
                    "type": "address"
                }
            ],
            "name": "OwnableInvalidOwner",
            "type": "error"
        },
        {
            "inputs": [
                {
                    "internalType": "address",
                    "name": "account",
                    "type": "address"
                }
            ],
            "name": "OwnableUnauthorizedAccount",
            "type": "error"
        },
        {
            "anonymous": false,
            "inputs": [
                {
                    "indexed": true,
                    "internalType": "address",
                    "name": "owner",
                    "type": "address"
                },
                {
                    "indexed": true,
                    "internalType": "address",
                    "name": "approved",
                    "type": "address"
                },
                {
                    "indexed": true,
                    "internalType": "uint256",
                    "name": "tokenId",
                    "type": "uint256"
                }
            ],
            "name": "Approval",
            "type": "event"
        },
        {
            "anonymous": false,
            "inputs": [
                {
                    "indexed": true,
                    "internalType": "address",
                    "name": "owner",
                    "type": "address"
                },
                {
                    "indexed": true,
                    "internalType": "address",
                    "name": "operator",
                    "type": "address"
                },
                {
                    "indexed": false,
                    "internalType": "bool",
                    "name": "approved",
                    "type": "bool"
                }
            ],
            "name": "ApprovalForAll",
            "type": "event"
        },
        {
            "anonymous": false,
            "inputs": [
                {
                    "indexed": true,
                    "internalType": "string",
                    "name": "qrCode",
                    "type": "string"
                },
                {
                    "indexed": false,
                    "internalType": "uint256",
                    "name": "tokenId",
                    "type": "uint256"
                },
                {
                    "indexed": false,
                    "internalType": "address",
                    "name": "owner",
                    "type": "address"
                },
                {
                    "indexed": false,
                    "internalType": "string",
                    "name": "tokenURI",
                    "type": "string"
                }
            ],
            "name": "ArtNFTMinted",
            "type": "event"
        },
        {
            "anonymous": false,
            "inputs": [
                {
                    "indexed": false,
                    "internalType": "uint256",
                    "name": "_fromTokenId",
                    "type": "uint256"
                },
                {
                    "indexed": false,
                    "internalType": "uint256",
                    "name": "_toTokenId",
                    "type": "uint256"
                }
            ],
            "name": "BatchMetadataUpdate",
            "type": "event"
        },
        {
            "anonymous": false,
            "inputs": [
                {
                    "indexed": false,
                    "internalType": "uint256",
                    "name": "_tokenId",
                    "type": "uint256"
                }
            ],
            "name": "MetadataUpdate",
            "type": "event"
        },
        {
            "anonymous": false,
            "inputs": [
                {
                    "indexed": true,
                    "internalType": "address",
                    "name": "operator",
                    "type": "address"
                },
                {
                    "indexed": false,
                    "internalType": "bool",
                    "name": "authorized",
                    "type": "bool"
                }
            ],
            "name": "OperatorAuthorized",
            "type": "event"
        },
        {
            "anonymous": false,
            "inputs": [
                {
                    "indexed": true,
                    "internalType": "address",
                    "name": "previousOwner",
                    "type": "address"
                },
                {
                    "indexed": true,
                    "internalType": "address",
                    "name": "newOwner",
                    "type": "address"
                }
            ],
            "name": "OwnershipTransferred",
            "type": "event"
        },
        {
            "anonymous": false,
            "inputs": [
                {
                    "indexed": true,
                    "internalType": "string",
                    "name": "qrCode",
                    "type": "string"
                },
                {
                    "indexed": false,
                    "internalType": "string",
                    "name": "brand",
                    "type": "string"
                },
                {
                    "indexed": false,
                    "internalType": "string",
                    "name": "model",
                    "type": "string"
                },
                {
                    "indexed": false,
                    "internalType": "address",
                    "name": "collector",
                    "type": "address"
                }
            ],
            "name": "PanelRegistered",
            "type": "event"
        },
        {
            "anonymous": false,
            "inputs": [
                {
                    "indexed": true,
                    "internalType": "string",
                    "name": "qrCode",
                    "type": "string"
                },
                {
                    "indexed": false,
                    "internalType": "enum RafiquiTracker.PanelStatus",
                    "name": "status",
                    "type": "uint8"
                },
                {
                    "indexed": false,
                    "internalType": "string",
                    "name": "location",
                    "type": "string"
                },
                {
                    "indexed": false,
                    "internalType": "address",
                    "name": "updatedBy",
                    "type": "address"
                }
            ],
            "name": "StatusUpdated",
            "type": "event"
        },
        {
            "anonymous": false,
            "inputs": [
                {
                    "indexed": true,
                    "internalType": "address",
                    "name": "from",
                    "type": "address"
                },
                {
                    "indexed": true,
                    "internalType": "address",
                    "name": "to",
                    "type": "address"
                },
                {
                    "indexed": true,
                    "internalType": "uint256",
                    "name": "tokenId",
                    "type": "uint256"
                }
            ],
            "name": "Transfer",
            "type": "event"
        },
        {
            "inputs": [
                {
                    "internalType": "address",
                    "name": "to",
                    "type": "address"
                },
                {
                    "internalType": "uint256",
                    "name": "tokenId",
                    "type": "uint256"
                }
            ],
            "name": "approve",
            "outputs": [],
            "stateMutability": "nonpayable",
            "type": "function"
        },
        {
            "inputs": [
                {
                    "internalType": "uint256",
                    "name": "",
                    "type": "uint256"
                }
            ],
            "name": "artTokenToPanel",
            "outputs": [
                {
                    "internalType": "string",
                    "name": "",
                    "type": "string"
                }
            ],
            "stateMutability": "view",
            "type": "function"
        },
        {
            "inputs": [
                {
                    "internalType": "address",
                    "name": "",
                    "type": "address"
                }
            ],
            "name": "authorizedOperators",
            "outputs": [
                {
                    "internalType": "bool",
                    "name": "",
                    "type": "bool"
                }
            ],
            "stateMutability": "view",
            "type": "function"
        },
        {
            "inputs": [
                {
                    "internalType": "address",
                    "name": "owner",
                    "type": "address"
                }
            ],
            "name": "balanceOf",
            "outputs": [
                {
                    "internalType": "uint256",
                    "name": "",
                    "type": "uint256"
                }
            ],
            "stateMutability": "view",
            "type": "function"
        },
        {
            "inputs": [
                {
                    "internalType": "uint256",
                    "name": "tokenId",
                    "type": "uint256"
                }
            ],
            "name": "getApproved",
            "outputs": [
                {
                    "internalType": "address",
                    "name": "",
                    "type": "address"
                }
            ],
            "stateMutability": "view",
            "type": "function"
        },
        {
            "inputs": [
                {
                    "internalType": "string",
                    "name": "qrCode",
                    "type": "string"
                }
            ],
            "name": "getPanel",
            "outputs": [
                {
                    "components": [
                        {
                            "internalType": "string",
                            "name": "qrCode",
                            "type": "string"
                        },
                        {
                            "internalType": "string",
                            "name": "brand",
                            "type": "string"
                        },
                        {
                            "internalType": "string",
                            "name": "model",
                            "type": "string"
                        },
                        {
                            "internalType": "address",
                            "name": "collector",
                            "type": "address"
                        },
                        {
                            "internalType": "address",
                            "name": "inspector",
                            "type": "address"
                        },
                        {
                            "internalType": "uint256",
                            "name": "createdAt",
                            "type": "uint256"
                        },
                        {
                            "internalType": "bool",
                            "name": "isArt",
                            "type": "bool"
                        },
                        {
                            "internalType": "uint256",
                            "name": "artTokenId",
                            "type": "uint256"
                        }
                    ],
                    "internalType": "struct RafiquiTracker.Panel",
                    "name": "",
                    "type": "tuple"
                }
            ],
            "stateMutability": "view",
            "type": "function"
        },
        {
            "inputs": [
                {
                    "internalType": "string",
                    "name": "qrCode",
                    "type": "string"
                }
            ],
            "name": "getPanelHistory",
            "outputs": [
                {
                    "components": [
                        {
                            "internalType": "enum RafiquiTracker.PanelStatus",
                            "name": "status",
                            "type": "uint8"
                        },
                        {
                            "internalType": "string",
                            "name": "location",
                            "type": "string"
                        },
                        {
                            "internalType": "uint256",
                            "name": "timestamp",
                            "type": "uint256"
                        },
                        {
                            "internalType": "string",
                            "name": "ipfsHash",
                            "type": "string"
                        },
                        {
                            "internalType": "address",
                            "name": "updatedBy",
                            "type": "address"
                        }
                    ],
                    "internalType": "struct RafiquiTracker.PanelHistory[]",
                    "name": "",
                    "type": "tuple[]"
                }
            ],
            "stateMutability": "view",
            "type": "function"
        },
        {
            "inputs": [
                {
                    "internalType": "address",
                    "name": "owner",
                    "type": "address"
                },
                {
                    "internalType": "address",
                    "name": "operator",
                    "type": "address"
                }
            ],
            "name": "isApprovedForAll",
            "outputs": [
                {
                    "internalType": "bool",
                    "name": "",
                    "type": "bool"
                }
            ],
            "stateMutability": "view",
            "type": "function"
        },
        {
            "inputs": [
                {
                    "internalType": "string",
                    "name": "qrCode",
                    "type": "string"
                },
                {
                    "internalType": "string",
                    "name": "tokenURI",
                    "type": "string"
                },
                {
                    "internalType": "address",
                    "name": "artOwner",
                    "type": "address"
                }
            ],
            "name": "mintArtNFT",
            "outputs": [],
            "stateMutability": "nonpayable",
            "type": "function"
        },
        {
            "inputs": [],
            "name": "name",
            "outputs": [
                {
                    "internalType": "string",
                    "name": "",
                    "type": "string"
                }
            ],
            "stateMutability": "view",
            "type": "function"
        },
        {
            "inputs": [],
            "name": "owner",
            "outputs": [
                {
                    "internalType": "address",
                    "name": "",
                    "type": "address"
                }
            ],
            "stateMutability": "view",
            "type": "function"
        },
        {
            "inputs": [
                {
                    "internalType": "uint256",
                    "name": "tokenId",
                    "type": "uint256"
                }
            ],
            "name": "ownerOf",
            "outputs": [
                {
                    "internalType": "address",
                    "name": "",
                    "type": "address"
                }
            ],
            "stateMutability": "view",
            "type": "function"
        },
        {
            "inputs": [
                {
                    "internalType": "string",
                    "name": "",
                    "type": "string"
                },
                {
                    "internalType": "uint256",
                    "name": "",
                    "type": "uint256"
                }
            ],
            "name": "panelTraceability",
            "outputs": [
                {
                    "internalType": "enum RafiquiTracker.PanelStatus",
                    "name": "status",
                    "type": "uint8"
                },
                {
                    "internalType": "string",
                    "name": "location",
                    "type": "string"
                },
                {
                    "internalType": "uint256",
                    "name": "timestamp",
                    "type": "uint256"
                },
                {
                    "internalType": "string",
                    "name": "ipfsHash",
                    "type": "string"
                },
                {
                    "internalType": "address",
                    "name": "updatedBy",
                    "type": "address"
                }
            ],
            "stateMutability": "view",
            "type": "function"
        },
        {
            "inputs": [
                {
                    "internalType": "string",
                    "name": "",
                    "type": "string"
                }
            ],
            "name": "panels",
            "outputs": [
                {
                    "internalType": "string",
                    "name": "qrCode",
                    "type": "string"
                },
                {
                    "internalType": "string",
                    "name": "brand",
                    "type": "string"
                },
                {
                    "internalType": "string",
                    "name": "model",
                    "type": "string"
                },
                {
                    "internalType": "address",
                    "name": "collector",
                    "type": "address"
                },
                {
                    "internalType": "address",
                    "name": "inspector",
                    "type": "address"
                },
                {
                    "internalType": "uint256",
                    "name": "createdAt",
                    "type": "uint256"
                },
                {
                    "internalType": "bool",
                    "name": "isArt",
                    "type": "bool"
                },
                {
                    "internalType": "uint256",
                    "name": "artTokenId",
                    "type": "uint256"
                }
            ],
            "stateMutability": "view",
            "type": "function"
        },
        {
            "inputs": [
                {
                    "internalType": "string",
                    "name": "qrCode",
                    "type": "string"
                },
                {
                    "internalType": "string",
                    "name": "brand",
                    "type": "string"
                },
                {
                    "internalType": "string",
                    "name": "model",
                    "type": "string"
                },
                {
                    "internalType": "string",
                    "name": "location",
                    "type": "string"
                },
                {
                    "internalType": "string",
                    "name": "ipfsHash",
                    "type": "string"
                }
            ],
            "name": "registerPanel",
            "outputs": [],
            "stateMutability": "nonpayable",
            "type": "function"
        },
        {
            "inputs": [],
            "name": "renounceOwnership",
            "outputs": [],
            "stateMutability": "nonpayable",
            "type": "function"
        },
        {
            "inputs": [
                {
                    "internalType": "address",
                    "name": "from",
                    "type": "address"
                },
                {
                    "internalType": "address",
                    "name": "to",
                    "type": "address"
                },
                {
                    "internalType": "uint256",
                    "name": "tokenId",
                    "type": "uint256"
                }
            ],
            "name": "safeTransferFrom",
            "outputs": [],
            "stateMutability": "nonpayable",
            "type": "function"
        },
        {
            "inputs": [
                {
                    "internalType": "address",
                    "name": "from",
                    "type": "address"
                },
                {
                    "internalType": "address",
                    "name": "to",
                    "type": "address"
                },
                {
                    "internalType": "uint256",
                    "name": "tokenId",
                    "type": "uint256"
                },
                {
                    "internalType": "bytes",
                    "name": "data",
                    "type": "bytes"
                }
            ],
            "name": "safeTransferFrom",
            "outputs": [],
            "stateMutability": "nonpayable",
            "type": "function"
        },
        {
            "inputs": [
                {
                    "internalType": "address",
                    "name": "operator",
                    "type": "address"
                },
                {
                    "internalType": "bool",
                    "name": "approved",
                    "type": "bool"
                }
            ],
            "name": "setApprovalForAll",
            "outputs": [],
            "stateMutability": "nonpayable",
            "type": "function"
        },
        {
            "inputs": [
                {
                    "internalType": "address",
                    "name": "operator",
                    "type": "address"
                },
                {
                    "internalType": "bool",
                    "name": "authorized",
                    "type": "bool"
                }
            ],
            "name": "setOperator",
            "outputs": [],
            "stateMutability": "nonpayable",
            "type": "function"
        },
        {
            "inputs": [
                {
                    "internalType": "bytes4",
                    "name": "interfaceId",
                    "type": "bytes4"
                }
            ],
            "name": "supportsInterface",
            "outputs": [
                {
                    "internalType": "bool",
                    "name": "",
                    "type": "bool"
                }
            ],
            "stateMutability": "view",
            "type": "function"
        },
        {
            "inputs": [],
            "name": "symbol",
            "outputs": [
                {
                    "internalType": "string",
                    "name": "",
                    "type": "string"
                }
            ],
            "stateMutability": "view",
            "type": "function"
        },
        {
            "inputs": [
                {
                    "internalType": "uint256",
                    "name": "tokenId",
                    "type": "uint256"
                }
            ],
            "name": "tokenURI",
            "outputs": [
                {
                    "internalType": "string",
                    "name": "",
                    "type": "string"
                }
            ],
            "stateMutability": "view",
            "type": "function"
        },
        {
            "inputs": [
                {
                    "internalType": "address",
                    "name": "from",
                    "type": "address"
                },
                {
                    "internalType": "address",
                    "name": "to",
                    "type": "address"
                },
                {
                    "internalType": "uint256",
                    "name": "tokenId",
                    "type": "uint256"
                }
            ],
            "name": "transferFrom",
            "outputs": [],
            "stateMutability": "nonpayable",
            "type": "function"
        },
        {
            "inputs": [
                {
                    "internalType": "address",
                    "name": "newOwner",
                    "type": "address"
                }
            ],
            "name": "transferOwnership",
            "outputs": [],
            "stateMutability": "nonpayable",
            "type": "function"
        },
        {
            "inputs": [
                {
                    "internalType": "string",
                    "name": "qrCode",
                    "type": "string"
                },
                {
                    "internalType": "enum RafiquiTracker.PanelStatus",
                    "name": "status",
                    "type": "uint8"
                },
                {
                    "internalType": "string",
                    "name": "location",
                    "type": "string"
                },
                {
                    "internalType": "string",
                    "name": "ipfsHash",
                    "type": "string"
                }
            ],
            "name": "updateStatus",
            "outputs": [],
            "stateMutability": "nonpayable",
            "type": "function"
        }
    ],
    "bytecode": "0x60806040523480156200001157600080fd5b50336040518060400160405280600b81526020016a1498599a5c5d5a48105c9d60aa1b815250604051806040016040528060048152602001631490549560e21b8152508160009081620000659190620001c9565b506001620000748282620001c9565b5050506001600160a01b038116620000a657604051631e4fbdf760e01b81526000600482015260240160405180910390fd5b620000b181620000d2565b50336000908152600c60205260409020805460ff1916600117905562000295565b600780546001600160a01b038381166001600160a01b0319831681179093556040519116919082907f8be0079c531659141344cd1fd0a4f28419497f9722a3daafe3b4186f6b6457e090600090a35050565b634e487b7160e01b600052604160045260246000fd5b600181811c908216806200014f57607f821691505b6020821081036200017057634e487b7160e01b600052602260045260246000fd5b50919050565b601f821115620001c457600081815260208120601f850160051c810160208610156200019f5750805b601f850160051c820191505b81811015620001c057828155600101620001ab565b5050505b505050565b81516001600160401b03811115620001e557620001e562000124565b620001fd81620001f684546200013a565b8462000176565b602080601f8311600181146200023557600084156200021c5750858301515b600019600386901b1c1916600185901b178555620001c0565b600085815260208120601f198616915b82811015620002665788860151825594840194600190910190840162000245565b5085821015620002855787850151600019600388901b60f8161c191681555b5050505050600190811b01905550565b612ea480620002a56000396000f3fe608060405234801561001057600080fd5b506004361061018e5760003560e01c8063715018a6116100de578063b88d4fde11610097578063c87b56dd11610071578063c87b56dd146103ab578063e985e9c5146103be578063f0c0ce07146103d1578063f2fde38b146103e457600080fd5b8063b88d4fde1461035e578063be9fd56814610371578063c4dac4741461038457600080fd5b8063715018a6146102f35780637fb30d31146102fb5780638da5cb5b1461031f57806395d89b4114610330578063a22cb46514610338578063af4993931461034b57600080fd5b806315e7d7ae1161014b57806342842e0e1161012557806342842e0e14610299578063558a7297146102ac5780636352211e146102bf57806370a08231146102d257600080fd5b806315e7d7ae14610243578063181d989b1461026357806323b872dd1461028657600080fd5b806301ffc9a71461019357806302d647ff146101bb57806306fdde03146101db578063081812fc146101e3578063095ea7b31461020e57806311049cb914610223575b600080fd5b6101a66101a1366004612352565b6103f7565b60405190151581526020015b60405180910390f35b6101ce6101c936600461236f565b610422565b6040516101b291906123d8565b6101ce6104bc565b6101f66101f136600461236f565b61054e565b6040516001600160a01b0390911681526020016101b2565b61022161021c366004612407565b610577565b005b6102366102313660046124dd565b610586565b6040516101b2919061254a565b6102566102513660046124dd565b6107cb565b6040516101b29190612601565b6101a66102713660046126c0565b600c6020526000908152604090205460ff1681565b6102216102943660046126db565b610a9e565b6102216102a73660046126db565b610b29565b6102216102ba366004612717565b610b49565b6101f66102cd36600461236f565b610bb0565b6102e56102e03660046126c0565b610bbb565b6040519081526020016101b2565b610221610c03565b61030e610309366004612753565b610c17565b6040516101b2959493929190612798565b6007546001600160a01b03166101f6565b6101ce610d93565b610221610346366004612717565b610da2565b6102216103593660046127eb565b610dad565b61022161036c3660046128bd565b61110d565b61022161037f366004612939565b611125565b6103976103923660046124dd565b6113b2565b6040516101b29897969594939291906129ce565b6101ce6103b936600461236f565b6115a9565b6101a66103cc366004612a42565b6116ba565b6102216103df366004612a75565b6116e8565b6102216103f23660046126c0565b611a92565b60006001600160e01b03198216632483248360e11b148061041c575061041c82611ad0565b92915050565b600b602052600090815260409020805461043b90612ae9565b80601f016020809104026020016040519081016040528092919081815260200182805461046790612ae9565b80156104b45780601f10610489576101008083540402835291602001916104b4565b820191906000526020600020905b81548152906001019060200180831161049757829003601f168201915b505050505081565b6060600080546104cb90612ae9565b80601f01602080910402602001604051908101604052809291908181526020018280546104f790612ae9565b80156105445780601f1061051957610100808354040283529160200191610544565b820191906000526020600020905b81548152906001019060200180831161052757829003601f168201915b5050505050905090565b600061055982611b20565b506000828152600460205260409020546001600160a01b031661041c565b610582828233611b59565b5050565b606081600060098260405161059b9190612b1d565b90815260405190819003602001902080546105b590612ae9565b9050116105dd5760405162461bcd60e51b81526004016105d490612b39565b60405180910390fd5b600a836040516105ed9190612b1d565b9081526020016040518091039020805480602002602001604051908101604052809291908181526020016000905b828210156107be576000848152602090206040805160a08101909152600584029091018054829060ff16600881111561065657610656612512565b600881111561066757610667612512565b815260200160018201805461067b90612ae9565b80601f01602080910402602001604051908101604052809291908181526020018280546106a790612ae9565b80156106f45780601f106106c9576101008083540402835291602001916106f4565b820191906000526020600020905b8154815290600101906020018083116106d757829003601f168201915b505050505081526020016002820154815260200160038201805461071790612ae9565b80601f016020809104026020016040519081016040528092919081815260200182805461074390612ae9565b80156107905780601f1061076557610100808354040283529160200191610790565b820191906000526020600020905b81548152906001019060200180831161077357829003601f168201915b5050509183525050600491909101546001600160a01b0316602091820152908252600192909201910161061b565b5050505091505b50919050565b61082760405180610100016040528060608152602001606081526020016060815260200160006001600160a01b0316815260200160006001600160a01b0316815260200160008152602001600015158152602001600081525090565b81600060098260405161083a9190612b1d565b908152604051908190036020019020805461085490612ae9565b9050116108735760405162461bcd60e51b81526004016105d490612b39565b6009836040516108839190612b1d565b9081526020016040518091039020604051806101000160405290816000820180546108ad90612ae9565b80601f01602080910402602001604051908101604052809291908181526020018280546108d990612ae9565b80156109265780601f106108fb57610100808354040283529160200191610926565b820191906000526020600020905b81548152906001019060200180831161090957829003601f168201915b5050505050815260200160018201805461093f90612ae9565b80601f016020809104026020016040519081016040528092919081815260200182805461096b90612ae9565b80156109b85780601f1061098d576101008083540402835291602001916109b8565b820191906000526020600020905b81548152906001019060200180831161099b57829003601f168201915b505050505081526020016002820180546109d190612ae9565b80601f01602080910402602001604051908101604052809291908181526020018280546109fd90612ae9565b8015610a4a5780601f10610a1f57610100808354040283529160200191610a4a565b820191906000526020600020905b815481529060010190602001808311610a2d57829003601f168201915b505050918352505060038201546001600160a01b039081166020830152600483015416604082015260058201546060820152600682015460ff161515608082015260079091015460a0909101529392505050565b6001600160a01b038216610ac857604051633250574960e11b8152600060048201526024016105d4565b6000610ad5838333611b66565b9050836001600160a01b0316816001600160a01b031614610b23576040516364283d7b60e01b81526001600160a01b03808616600483015260248201849052821660448201526064016105d4565b50505050565b610b448383836040518060200160405280600081525061110d565b505050565b610b51611c5f565b6001600160a01b0382166000818152600c6020908152604091829020805460ff191685151590811790915591519182527fc176fcf7d48a6aca0d96d3b3201f7add47c4af04ce9a51f5f4eb15d528c46e21910160405180910390a25050565b600061041c82611b20565b60006001600160a01b038216610be7576040516322718ad960e21b8152600060048201526024016105d4565b506001600160a01b031660009081526003602052604090205490565b610c0b611c5f565b610c156000611c8c565b565b8151602081840181018051600a825292820191850191909120919052805482908110610c4257600080fd5b60009182526020909120600590910201805460018201805460ff9092169450919250610c6d90612ae9565b80601f0160208091040260200160405190810160405280929190818152602001828054610c9990612ae9565b8015610ce65780601f10610cbb57610100808354040283529160200191610ce6565b820191906000526020600020905b815481529060010190602001808311610cc957829003601f168201915b505050505090806002015490806003018054610d0190612ae9565b80601f0160208091040260200160405190810160405280929190818152602001828054610d2d90612ae9565b8015610d7a5780601f10610d4f57610100808354040283529160200191610d7a565b820191906000526020600020905b815481529060010190602001808311610d5d57829003601f168201915b505050600490930154919250506001600160a01b031685565b6060600180546104cb90612ae9565b610582338383611cde565b336000908152600c602052604090205460ff1680610de4575033610dd96007546001600160a01b031690565b6001600160a01b0316145b610e005760405162461bcd60e51b81526004016105d490612b7d565b600985604051610e109190612b1d565b9081526040519081900360200190208054610e2a90612ae9565b159050610e855760405162461bcd60e51b8152602060048201526024808201527f52616669717569547261636b65723a2070616e656c20616c72656164792065786044820152636973747360e01b60648201526084016105d4565b6040805161010081018252868152602081018690528082018590523360608201526000608082018190524260a083015260c0820181905260e08201529051600990610ed1908890612b1d565b90815260405190819003602001902081518190610eee9082612c0b565b5060208201516001820190610f039082612c0b565b5060408201516002820190610f189082612c0b565b5060608201516003820180546001600160a01b039283166001600160a01b031991821617909155608084015160048401805491909316911617905560a0820151600582015560c082015160068201805491151560ff1990921691909117905560e090910151600790910155604051600a90610f94908790612b1d565b90815260408051918290036020908101832060a084018352600080855282850187905242938501939093526060840185905233608085015280546001808201835591845291909220835160059092020180549092839160ff19169083600881111561100157611001612512565b02179055506020820151600182019061101a9082612c0b565b5060408201516002820155606082015160038201906110399082612c0b565b5060809190910151600490910180546001600160a01b0319166001600160a01b03909216919091179055604051611071908690612b1d565b60405180910390207feed886baac752d81e3e1c715a03961036421744f5d4236d40b87276c1f7eafd48585336040516110ac93929190612ccb565b60405180910390a2846040516110c29190612b1d565b60405180910390207f24ae167f16c9cd5fd8a4bcfd4e972597bc8905ffbd0d78f2dfb7ddbafe133ecb600084336040516110fe93929190612d09565b60405180910390a25050505050565b611118848484610a9e565b610b233385858585611d7d565b336000908152600c602052604090205460ff168061115c5750336111516007546001600160a01b031690565b6001600160a01b0316145b6111785760405162461bcd60e51b81526004016105d490612b7d565b83600060098260405161118b9190612b1d565b90815260405190819003602001902080546111a590612ae9565b9050116111c45760405162461bcd60e51b81526004016105d490612b39565b60028460088111156111d8576111d8612512565b0361122157336009866040516111ee9190612b1d565b90815260405190819003602001902060040180546001600160a01b03929092166001600160a01b03199092169190911790555b600584600881111561123557611235612512565b0361127057600160098660405161124c9190612b1d565b908152604051908190036020019020600601805491151560ff199092169190911790555b600a856040516112809190612b1d565b90815260200160405180910390206040518060a001604052808660088111156112ab576112ab612512565b81526020808201879052426040830152606082018690523360809092019190915282546001818101855560009485529190932082516005909402018054929390929091839160ff19169083600881111561130757611307612512565b0217905550602082015160018201906113209082612c0b565b50604082015160028201556060820151600382019061133f9082612c0b565b5060809190910151600490910180546001600160a01b0319166001600160a01b03909216919091179055604051611377908690612b1d565b60405180910390207f24ae167f16c9cd5fd8a4bcfd4e972597bc8905ffbd0d78f2dfb7ddbafe133ecb8585336040516110fe93929190612d09565b80516020818301810180516009825292820191909301209152805481906113d890612ae9565b80601f016020809104026020016040519081016040528092919081815260200182805461140490612ae9565b80156114515780601f1061142657610100808354040283529160200191611451565b820191906000526020600020905b81548152906001019060200180831161143457829003601f168201915b50505050509080600101805461146690612ae9565b80601f016020809104026020016040519081016040528092919081815260200182805461149290612ae9565b80156114df5780601f106114b4576101008083540402835291602001916114df565b820191906000526020600020905b8154815290600101906020018083116114c257829003601f168201915b5050505050908060020180546114f490612ae9565b80601f016020809104026020016040519081016040528092919081815260200182805461152090612ae9565b801561156d5780601f106115425761010080835404028352916020019161156d565b820191906000526020600020905b81548152906001019060200180831161155057829003601f168201915b505050600384015460048501546005860154600687015460079097015495966001600160a01b0393841696929093169450925060ff9091169088565b60606115b482611b20565b50600082815260066020526040812080546115ce90612ae9565b80601f01602080910402602001604051908101604052809291908181526020018280546115fa90612ae9565b80156116475780601f1061161c57610100808354040283529160200191611647565b820191906000526020600020905b81548152906001019060200180831161162a57829003601f168201915b50505050509050600061166560408051602081019091526000815290565b90508051600003611677575092915050565b8151156116a9578082604051602001611691929190612d41565b60405160208183030381529060405292505050919050565b6116b284611ea8565b949350505050565b6001600160a01b03918216600090815260056020908152604080832093909416825291909152205460ff1690565b336000908152600c602052604090205460ff168061171f5750336117146007546001600160a01b031690565b6001600160a01b0316145b61173b5760405162461bcd60e51b81526004016105d490612b7d565b82600060098260405161174e9190612b1d565b908152604051908190036020019020805461176890612ae9565b9050116117875760405162461bcd60e51b81526004016105d490612b39565b6009846040516117979190612b1d565b9081526040519081900360200190206006015460ff1661180e5760405162461bcd60e51b815260206004820152602c60248201527f52616669717569547261636b65723a2070616e656c206973206e6f742061707060448201526b1c9bdd995908185cc8185c9d60a21b60648201526084016105d4565b60098460405161181e9190612b1d565b90815260200160405180910390206007015460001461188a5760405162461bcd60e51b815260206004820152602260248201527f52616669717569547261636b65723a204e465420616c7265616479206d696e74604482015261195960f21b60648201526084016105d4565b6008805490600061189a83612d70565b90915550506008546118ac8382611f1d565b6118b68185611f37565b806009866040516118c79190612b1d565b9081526040805160209281900383019020600701929092556000838152600b909152206118f48682612c0b565b50600a856040516119059190612b1d565b90815260408051918290036020908101832060a084018352600880855283518085018552600f81526e4e4654204d61726b6574706c61636560881b81850152838601524293850193909352606084018890523360808501528054600180820183556000928352929091208451600590920201805490939192849260ff1990921691849081111561199757611997612512565b0217905550602082015160018201906119b09082612c0b565b5060408201516002820155606082015160038201906119cf9082612c0b565b5060809190910151600490910180546001600160a01b0319166001600160a01b03909216919091179055604051611a07908690612b1d565b60405180910390207f0ca70f5151eb441789df43c0dae4cd79cd5153c4c48e9096f316b3941cf0526a828587604051611a4293929190612d97565b60405180910390a284604051611a589190612b1d565b60405180910390207f24ae167f16c9cd5fd8a4bcfd4e972597bc8905ffbd0d78f2dfb7ddbafe133ecb6008336040516110fe929190612dca565b611a9a611c5f565b6001600160a01b038116611ac457604051631e4fbdf760e01b8152600060048201526024016105d4565b611acd81611c8c565b50565b60006001600160e01b031982166380ac58cd60e01b1480611b0157506001600160e01b03198216635b5e139f60e01b145b8061041c57506301ffc9a760e01b6001600160e01b031983161461041c565b6000818152600260205260408120546001600160a01b03168061041c57604051637e27328960e01b8152600481018490526024016105d4565b610b448383836001611f87565b6000828152600260205260408120546001600160a01b0390811690831615611b9357611b9381848661208d565b6001600160a01b03811615611bd157611bb0600085600080611f87565b6001600160a01b038116600090815260036020526040902080546000190190555b6001600160a01b03851615611c00576001600160a01b0385166000908152600360205260409020805460010190555b60008481526002602052604080822080546001600160a01b0319166001600160a01b0389811691821790925591518793918516917fddf252ad1be2c89b69c2b068fc378daa952ba7f163c4a11628f55a4df523b3ef91a4949350505050565b6007546001600160a01b03163314610c155760405163118cdaa760e01b81523360048201526024016105d4565b600780546001600160a01b038381166001600160a01b0319831681179093556040519116919082907f8be0079c531659141344cd1fd0a4f28419497f9722a3daafe3b4186f6b6457e090600090a35050565b6001600160a01b038216611d1057604051630b61174360e31b81526001600160a01b03831660048201526024016105d4565b6001600160a01b03838116600081815260056020908152604080832094871680845294825291829020805460ff191686151590811790915591519182527f17307eab39ab6107e8899845ad3d59bd9653f200f220920489ca2b5937696c31910160405180910390a3505050565b6001600160a01b0383163b15611ea157604051630a85bd0160e11b81526001600160a01b0384169063150b7a0290611dbf908890889087908790600401612e14565b6020604051808303816000875af1925050508015611dfa575060408051601f3d908101601f19168201909252611df791810190612e51565b60015b611e63573d808015611e28576040519150601f19603f3d011682016040523d82523d6000602084013e611e2d565b606091505b508051600003611e5b57604051633250574960e11b81526001600160a01b03851660048201526024016105d4565b805160208201fd5b6001600160e01b03198116630a85bd0160e11b14611e9f57604051633250574960e11b81526001600160a01b03851660048201526024016105d4565b505b5050505050565b6060611eb382611b20565b506000611ecb60408051602081019091526000815290565b90506000815111611eeb5760405180602001604052806000815250611f16565b80611ef5846120f1565b604051602001611f06929190612d41565b6040516020818303038152906040525b9392505050565b610582828260405180602001604052806000815250612184565b6000828152600660205260409020611f4f8282612c0b565b506040518281527ff8e1a15aba9398e019f0b49df1a4fde98ee17ae345cb5f6b5e2c27f5033e8ce79060200160405180910390a15050565b8080611f9b57506001600160a01b03821615155b1561205d576000611fab84611b20565b90506001600160a01b03831615801590611fd75750826001600160a01b0316816001600160a01b031614155b8015611fea5750611fe881846116ba565b155b156120135760405163a9fbf51f60e01b81526001600160a01b03841660048201526024016105d4565b811561205b5783856001600160a01b0316826001600160a01b03167f8c5be1e5ebec7d5bd14f71427d1e84f3dd0314c0f7b2291e5b200ac8c7c3b92560405160405180910390a45b505b5050600090815260046020526040902080546001600160a01b0319166001600160a01b0392909216919091179055565b61209883838361219c565b610b44576001600160a01b0383166120c657604051637e27328960e01b8152600481018290526024016105d4565b60405163177e802f60e01b81526001600160a01b0383166004820152602481018290526044016105d4565b606060006120fe836121ff565b600101905060008167ffffffffffffffff81111561211e5761211e612431565b6040519080825280601f01601f191660200182016040528015612148576020820181803683370190505b5090508181016020015b600019016f181899199a1a9b1b9c1cb0b131b232b360811b600a86061a8153600a850494508461215257509392505050565b61218e83836122d7565b610b44336000858585611d7d565b60006001600160a01b038316158015906116b25750826001600160a01b0316846001600160a01b031614806121d657506121d684846116ba565b806116b25750506000908152600460205260409020546001600160a01b03908116911614919050565b60008072184f03e93ff9f4daa797ed6e38ed64bf6a1f0160401b831061223e5772184f03e93ff9f4daa797ed6e38ed64bf6a1f0160401b830492506040015b6d04ee2d6d415b85acef8100000000831061226a576d04ee2d6d415b85acef8100000000830492506020015b662386f26fc10000831061228857662386f26fc10000830492506010015b6305f5e10083106122a0576305f5e100830492506008015b61271083106122b457612710830492506004015b606483106122c6576064830492506002015b600a831061041c5760010192915050565b6001600160a01b03821661230157604051633250574960e11b8152600060048201526024016105d4565b600061230f83836000611b66565b90506001600160a01b03811615610b44576040516339e3563760e11b8152600060048201526024016105d4565b6001600160e01b031981168114611acd57600080fd5b60006020828403121561236457600080fd5b8135611f168161233c565b60006020828403121561238157600080fd5b5035919050565b60005b838110156123a357818101518382015260200161238b565b50506000910152565b600081518084526123c4816020860160208601612388565b601f01601f19169290920160200192915050565b602081526000611f1660208301846123ac565b80356001600160a01b038116811461240257600080fd5b919050565b6000806040838503121561241a57600080fd5b612423836123eb565b946020939093013593505050565b634e487b7160e01b600052604160045260246000fd5b600067ffffffffffffffff8084111561246257612462612431565b604051601f8501601f19908116603f0116810190828211818310171561248a5761248a612431565b816040528093508581528686860111156124a357600080fd5b858560208301376000602087830101525050509392505050565b600082601f8301126124ce57600080fd5b611f1683833560208501612447565b6000602082840312156124ef57600080fd5b813567ffffffffffffffff81111561250657600080fd5b6116b2848285016124bd565b634e487b7160e01b600052602160045260246000fd5b6009811061254657634e487b7160e01b600052602160045260246000fd5b9052565b60006020808301818452808551808352604092508286019150828160051b87010184880160005b838110156125f357603f19898403018552815160a0612591858351612528565b88820151818a8701526125a6828701826123ac565b9150508782015188860152606080830151868303828801526125c883826123ac565b6080948501516001600160a01b03169790940196909652505094870194925090860190600101612571565b509098975050505050505050565b60208152600082516101008060208501526126206101208501836123ac565b91506020850151601f198086850301604087015261263e84836123ac565b935060408701519150808685030160608701525061265c83826123ac565b925050606085015161267960808601826001600160a01b03169052565b5060808501516001600160a01b03811660a08601525060a085015160c085015260c08501516126ac60e086018215159052565b5060e0949094015192909301919091525090565b6000602082840312156126d257600080fd5b611f16826123eb565b6000806000606084860312156126f057600080fd5b6126f9846123eb565b9250612707602085016123eb565b9150604084013590509250925092565b6000806040838503121561272a57600080fd5b612733836123eb565b91506020830135801515811461274857600080fd5b809150509250929050565b6000806040838503121561276657600080fd5b823567ffffffffffffffff81111561277d57600080fd5b612789858286016124bd565b95602094909401359450505050565b6127a28187612528565b60a0602082015260006127b860a08301876123ac565b85604084015282810360608401526127d081866123ac565b91505060018060a01b03831660808301529695505050505050565b600080600080600060a0868803121561280357600080fd5b853567ffffffffffffffff8082111561281b57600080fd5b61282789838a016124bd565b9650602088013591508082111561283d57600080fd5b61284989838a016124bd565b9550604088013591508082111561285f57600080fd5b61286b89838a016124bd565b9450606088013591508082111561288157600080fd5b61288d89838a016124bd565b935060808801359150808211156128a357600080fd5b506128b0888289016124bd565b9150509295509295909350565b600080600080608085870312156128d357600080fd5b6128dc856123eb565b93506128ea602086016123eb565b925060408501359150606085013567ffffffffffffffff81111561290d57600080fd5b8501601f8101871361291e57600080fd5b61292d87823560208401612447565b91505092959194509250565b6000806000806080858703121561294f57600080fd5b843567ffffffffffffffff8082111561296757600080fd5b612973888389016124bd565b9550602087013591506009821061298957600080fd5b9093506040860135908082111561299f57600080fd5b6129ab888389016124bd565b935060608701359150808211156129c157600080fd5b5061292d878288016124bd565b60006101008083526129e28184018c6123ac565b905082810360208401526129f6818b6123ac565b90508281036040840152612a0a818a6123ac565b6001600160a01b0398891660608501529690971660808301525060a081019390935290151560c083015260e090910152949350505050565b60008060408385031215612a5557600080fd5b612a5e836123eb565b9150612a6c602084016123eb565b90509250929050565b600080600060608486031215612a8a57600080fd5b833567ffffffffffffffff80821115612aa257600080fd5b612aae878388016124bd565b94506020860135915080821115612ac457600080fd5b50612ad1868287016124bd565b925050612ae0604085016123eb565b90509250925092565b600181811c90821680612afd57607f821691505b6020821081036107c557634e487b7160e01b600052602260045260246000fd5b60008251612b2f818460208701612388565b9190910192915050565b60208082526024908201527f52616669717569547261636b65723a2070616e656c20646f6573206e6f7420656040820152631e1a5cdd60e21b606082015260800190565b60208082526028908201527f52616669717569547261636b65723a2063616c6c6572206973206e6f742061756040820152671d1a1bdc9a5e995960c21b606082015260800190565b601f821115610b4457600081815260208120601f850160051c81016020861015612bec5750805b601f850160051c820191505b81811015611e9f57828155600101612bf8565b815167ffffffffffffffff811115612c2557612c25612431565b612c3981612c338454612ae9565b84612bc5565b602080601f831160018114612c6e5760008415612c565750858301515b600019600386901b1c1916600185901b178555611e9f565b600085815260208120601f198616915b82811015612c9d57888601518255948401946001909101908401612c7e565b5085821015612cbb5787850151600019600388901b60f8161c191681555b5050505050600190811b01905550565b606081526000612cde60608301866123ac565b8281036020840152612cf081866123ac565b91505060018060a01b0383166040830152949350505050565b612d138185612528565b606060208201526000612d2960608301856123ac565b905060018060a01b0383166040830152949350505050565b60008351612d53818460208801612388565b835190830190612d67818360208801612388565b01949350505050565b600060018201612d9057634e487b7160e01b600052601160045260246000fd5b5060010190565b8381526001600160a01b0383166020820152606060408201819052600090612dc1908301846123ac565b95945050505050565b612dd48184612528565b606060208201819052600f908201526e4e4654204d61726b6574706c61636560881b60808201526001600160a01b0391909116604082015260a001919050565b6001600160a01b0385811682528416602082015260408101839052608060608201819052600090612e47908301846123ac565b9695505050505050565b600060208284031215612e6357600080fd5b8151611f168161233c56fea264697066735822122003adb117db509a5671d13ba5f36aeb5dc3b57895a187f8686833d36019150ccd64736f6c63430008140033",
    "linkReferences": {},
    "deployedLinkReferences": {}
}