{
    "_format": "hh-sol-artifact-1",
    "contractName": "RafiquiMaterials",
    "sourceName": "contracts/RafiquiMaterials.sol",
    "abi": [
        {
            "inputs": [
                {
                    "internalType": "address",
                    "name": "_treasuryWallet",
                    "type": "address"
                },
                {
                    "internalType": "string",
                    "name": "_baseUri",
                    "type": "string"
                }
            ],
            "stateMutability": "nonpayable",
            "type": "constructor"
        },
        {
            "inputs": [
                {
                    "internalType": "address",
                    "name": "sender",
                    "type": "address"
                },
                {
                    "internalType": "uint256",
                    "name": "balance",
                    "type": "uint256"
                },
                {
                    "internalType": "uint256",
                    "name": "needed",
                    "type": "uint256"
                },
                {
                    "internalType": "uint256",
                    "name": "tokenId",
                    "type": "uint256"
                }
            ],
            "name": "ERC1155InsufficientBalance",
            "type": "error"
        },
        {
            "inputs": [
                {
                    "internalType": "address",
                    "name": "approver",
                    "type": "address"
                }
            ],
            "name": "ERC1155InvalidApprover",
            "type": "error"
        },
        {
            "inputs": [
                {
                    "internalType": "uint256",
                    "name": "idsLength",
                    "type": "uint256"
                },
                {
                    "internalType": "uint256",
                    "name": "valuesLength",
                    "type": "uint256"
                }
            ],
            "name": "ERC1155InvalidArrayLength",
            "type": "error"
        },
        {
            "inputs": [
                {
                    "internalType": "address",
                    "name": "operator",
                    "type": "address"
                }
            ],
            "name": "ERC1155InvalidOperator",
            "type": "error"
        },
        {
            "inputs": [
                {
                    "internalType": "address",
                    "name": "receiver",
                    "type": "address"
                }
            ],
            "name": "ERC1155InvalidReceiver",
            "type": "error"
        },
        {
            "inputs": [
                {
                    "internalType": "address",
                    "name": "sender",
                    "type": "address"
                }
            ],
            "name": "ERC1155InvalidSender",
            "type": "error"
        },
        {
            "inputs": [
                {
                    "internalType": "address",
                    "name": "operator",
                    "type": "address"
                },
                {
                    "internalType": "address",
                    "name": "owner",
                    "type": "address"
                }
            ],
            "name": "ERC1155MissingApprovalForAll",
            "type": "error"
        },
        {
            "inputs": [
                {
                    "internalType": "address",
                    "name": "owner",
                    "type": "address"
                }
            ],
            "name": "OwnableInvalidOwner",
            "type": "error"
        },
        {
            "inputs": [
                {
                    "internalType": "address",
                    "name": "account",
                    "type": "address"
                }
            ],
            "name": "OwnableUnauthorizedAccount",
            "type": "error"
        },
        {
            "anonymous": false,
            "inputs": [
                {
                    "indexed": true,
                    "internalType": "address",
                    "name": "account",
                    "type": "address"
                },
                {
                    "indexed": true,
                    "internalType": "address",
                    "name": "operator",
                    "type": "address"
                },
                {
                    "indexed": false,
                    "internalType": "bool",
                    "name": "approved",
                    "type": "bool"
                }
            ],
            "name": "ApprovalForAll",
            "type": "event"
        },
        {
            "anonymous": false,
            "inputs": [
                {
                    "indexed": true,
                    "internalType": "address",
                    "name": "from",
                    "type": "address"
                },
                {
                    "indexed": true,
                    "internalType": "uint256",
                    "name": "materialId",
                    "type": "uint256"
                },
                {
                    "indexed": false,
                    "internalType": "uint256",
                    "name": "amount",
                    "type": "uint256"
                },
                {
                    "indexed": false,
                    "internalType": "string",
                    "name": "redemptionId",
                    "type": "string"
                }
            ],
            "name": "MaterialsBurned",
            "type": "event"
        },
        {
            "anonymous": false,
            "inputs": [
                {
                    "indexed": true,
                    "internalType": "address",
                    "name": "to",
                    "type": "address"
                },
                {
                    "indexed": false,
                    "internalType": "uint256",
                    "name": "aluminumTokens",
                    "type": "uint256"
                },
                {
                    "indexed": false,
                    "internalType": "uint256",
                    "name": "glassTokens",
                    "type": "uint256"
                },
                {
                    "indexed": false,
                    "internalType": "uint256",
                    "name": "siliconTokens",
                    "type": "uint256"
                },
                {
                    "indexed": false,
                    "internalType": "uint256",
                    "name": "copperTokens",
                    "type": "uint256"
                },
                {
                    "indexed": false,
                    "internalType": "string",
                    "name": "recycleRecordId",
                    "type": "string"
                }
            ],
            "name": "MaterialsMinted",
            "type": "event"
        },
        {
            "anonymous": false,
            "inputs": [
                {
                    "indexed": true,
                    "internalType": "address",
                    "name": "from",
                    "type": "address"
                },
                {
                    "indexed": true,
                    "internalType": "address",
                    "name": "to",
                    "type": "address"
                },
                {
                    "indexed": true,
                    "internalType": "uint256",
                    "name": "materialId",
                    "type": "uint256"
                },
                {
                    "indexed": false,
                    "internalType": "uint256",
                    "name": "amount",
                    "type": "uint256"
                },
                {
                    "indexed": false,
                    "internalType": "string",
                    "name": "orderId",
                    "type": "string"
                }
            ],
            "name": "MaterialsTransferred",
            "type": "event"
        },
        {
            "anonymous": false,
            "inputs": [
                {
                    "indexed": true,
                    "internalType": "address",
                    "name": "operator",
                    "type": "address"
                },
                {
                    "indexed": false,
                    "internalType": "bool",
                    "name": "authorized",
                    "type": "bool"
                }
            ],
            "name": "OperatorAuthorized",
            "type": "event"
        },
        {
            "anonymous": false,
            "inputs": [
                {
                    "indexed": true,
                    "internalType": "address",
                    "name": "previousOwner",
                    "type": "address"
                },
                {
                    "indexed": true,
                    "internalType": "address",
                    "name": "newOwner",
                    "type": "address"
                }
            ],
            "name": "OwnershipTransferred",
            "type": "event"
        },
        {
            "anonymous": false,
            "inputs": [
                {
                    "indexed": true,
                    "internalType": "address",
                    "name": "operator",
                    "type": "address"
                },
                {
                    "indexed": true,
                    "internalType": "address",
                    "name": "from",
                    "type": "address"
                },
                {
                    "indexed": true,
                    "internalType": "address",
                    "name": "to",
                    "type": "address"
                },
                {
                    "indexed": false,
                    "internalType": "uint256[]",
                    "name": "ids",
                    "type": "uint256[]"
                },
                {
                    "indexed": false,
                    "internalType": "uint256[]",
                    "name": "values",
                    "type": "uint256[]"
                }
            ],
            "name": "TransferBatch",
            "type": "event"
        },
        {
            "anonymous": false,
            "inputs": [
                {
                    "indexed": true,
                    "internalType": "address",
                    "name": "operator",
                    "type": "address"
                },
                {
                    "indexed": true,
                    "internalType": "address",
                    "name": "from",
                    "type": "address"
                },
                {
                    "indexed": true,
                    "internalType": "address",
                    "name": "to",
                    "type": "address"
                },
                {
                    "indexed": false,
                    "internalType": "uint256",
                    "name": "id",
                    "type": "uint256"
                },
                {
                    "indexed": false,
                    "internalType": "uint256",
                    "name": "value",
                    "type": "uint256"
                }
            ],
            "name": "TransferSingle",
            "type": "event"
        },
        {
            "anonymous": false,
            "inputs": [
                {
                    "indexed": true,
                    "internalType": "address",
                    "name": "oldWallet",
                    "type": "address"
                },
                {
                    "indexed": true,
                    "internalType": "address",
                    "name": "newWallet",
                    "type": "address"
                }
            ],
            "name": "TreasuryWalletUpdated",
            "type": "event"
        },
        {
            "anonymous": false,
            "inputs": [
                {
                    "indexed": false,
                    "internalType": "string",
                    "name": "value",
                    "type": "string"
                },
                {
                    "indexed": true,
                    "internalType": "uint256",
                    "name": "id",
                    "type": "uint256"
                }
            ],
            "name": "URI",
            "type": "event"
        },
        {
            "inputs": [],
            "name": "ALUMINUM",
            "outputs": [
                {
                    "internalType": "uint256",
                    "name": "",
                    "type": "uint256"
                }
            ],
            "stateMutability": "view",
            "type": "function"
        },
        {
            "inputs": [],
            "name": "COPPER",
            "outputs": [
                {
                    "internalType": "uint256",
                    "name": "",
                    "type": "uint256"
                }
            ],
            "stateMutability": "view",
            "type": "function"
        },
        {
            "inputs": [],
            "name": "GLASS",
            "outputs": [
                {
                    "internalType": "uint256",
                    "name": "",
                    "type": "uint256"
                }
            ],
            "stateMutability": "view",
            "type": "function"
        },
        {
            "inputs": [],
            "name": "SILICON",
            "outputs": [
                {
                    "internalType": "uint256",
                    "name": "",
                    "type": "uint256"
                }
            ],
            "stateMutability": "view",
            "type": "function"
        },
        {
            "inputs": [],
            "name": "TOKENS_PER_KG",
            "outputs": [
                {
                    "internalType": "uint256",
                    "name": "",
                    "type": "uint256"
                }
            ],
            "stateMutability": "view",
            "type": "function"
        },
        {
            "inputs": [
                {
                    "internalType": "address",
                    "name": "",
                    "type": "address"
                }
            ],
            "name": "authorizedOperators",
            "outputs": [
                {
                    "internalType": "bool",
                    "name": "",
                    "type": "bool"
                }
            ],
            "stateMutability": "view",
            "type": "function"
        },
        {
            "inputs": [
                {
                    "internalType": "address",
                    "name": "account",
                    "type": "address"
                },
                {
                    "internalType": "uint256",
                    "name": "id",
                    "type": "uint256"
                }
            ],
            "name": "balanceOf",
            "outputs": [
                {
                    "internalType": "uint256",
                    "name": "",
                    "type": "uint256"
                }
            ],
            "stateMutability": "view",
            "type": "function"
        },
        {
            "inputs": [
                {
                    "internalType": "address[]",
                    "name": "accounts",
                    "type": "address[]"
                },
                {
                    "internalType": "uint256[]",
                    "name": "ids",
                    "type": "uint256[]"
                }
            ],
            "name": "balanceOfBatch",
            "outputs": [
                {
                    "internalType": "uint256[]",
                    "name": "",
                    "type": "uint256[]"
                }
            ],
            "stateMutability": "view",
            "type": "function"
        },
        {
            "inputs": [
                {
                    "internalType": "address",
                    "name": "to",
                    "type": "address"
                },
                {
                    "internalType": "uint256[]",
                    "name": "materialIds",
                    "type": "uint256[]"
                },
                {
                    "internalType": "uint256[]",
                    "name": "amounts",
                    "type": "uint256[]"
                },
                {
                    "internalType": "string",
                    "name": "orderId",
                    "type": "string"
                }
            ],
            "name": "batchTransferToBuyer",
            "outputs": [],
            "stateMutability": "nonpayable",
            "type": "function"
        },
        {
            "inputs": [
                {
                    "internalType": "address",
                    "name": "account",
                    "type": "address"
                },
                {
                    "internalType": "uint256",
                    "name": "id",
                    "type": "uint256"
                },
                {
                    "internalType": "uint256",
                    "name": "value",
                    "type": "uint256"
                }
            ],
            "name": "burn",
            "outputs": [],
            "stateMutability": "nonpayable",
            "type": "function"
        },
        {
            "inputs": [
                {
                    "internalType": "address",
                    "name": "account",
                    "type": "address"
                },
                {
                    "internalType": "uint256[]",
                    "name": "ids",
                    "type": "uint256[]"
                },
                {
                    "internalType": "uint256[]",
                    "name": "values",
                    "type": "uint256[]"
                }
            ],
            "name": "burnBatch",
            "outputs": [],
            "stateMutability": "nonpayable",
            "type": "function"
        },
        {
            "inputs": [
                {
                    "internalType": "uint256",
                    "name": "id",
                    "type": "uint256"
                }
            ],
            "name": "exists",
            "outputs": [
                {
                    "internalType": "bool",
                    "name": "",
                    "type": "bool"
                }
            ],
            "stateMutability": "view",
            "type": "function"
        },
        {
            "inputs": [
                {
                    "internalType": "address",
                    "name": "account",
                    "type": "address"
                }
            ],
            "name": "getAllBalances",
            "outputs": [
                {
                    "internalType": "uint256",
                    "name": "aluminum",
                    "type": "uint256"
                },
                {
                    "internalType": "uint256",
                    "name": "glass",
                    "type": "uint256"
                },
                {
                    "internalType": "uint256",
                    "name": "silicon",
                    "type": "uint256"
                },
                {
                    "internalType": "uint256",
                    "name": "copper",
                    "type": "uint256"
                }
            ],
            "stateMutability": "view",
            "type": "function"
        },
        {
            "inputs": [
                {
                    "internalType": "address",
                    "name": "account",
                    "type": "address"
                },
                {
                    "internalType": "uint256",
                    "name": "materialId",
                    "type": "uint256"
                }
            ],
            "name": "getBalanceInKg",
            "outputs": [
                {
                    "internalType": "uint256",
                    "name": "",
                    "type": "uint256"
                }
            ],
            "stateMutability": "view",
            "type": "function"
        },
        {
            "inputs": [],
            "name": "getTotalSupplies",
            "outputs": [
                {
                    "internalType": "uint256",
                    "name": "aluminum",
                    "type": "uint256"
                },
                {
                    "internalType": "uint256",
                    "name": "glass",
                    "type": "uint256"
                },
                {
                    "internalType": "uint256",
                    "name": "silicon",
                    "type": "uint256"
                },
                {
                    "internalType": "uint256",
                    "name": "copper",
                    "type": "uint256"
                }
            ],
            "stateMutability": "view",
            "type": "function"
        },
        {
            "inputs": [],
            "name": "getTreasuryBalances",
            "outputs": [
                {
                    "internalType": "uint256",
                    "name": "aluminum",
                    "type": "uint256"
                },
                {
                    "internalType": "uint256",
                    "name": "glass",
                    "type": "uint256"
                },
                {
                    "internalType": "uint256",
                    "name": "silicon",
                    "type": "uint256"
                },
                {
                    "internalType": "uint256",
                    "name": "copper",
                    "type": "uint256"
                }
            ],
            "stateMutability": "view",
            "type": "function"
        },
        {
            "inputs": [
                {
                    "internalType": "address",
                    "name": "account",
                    "type": "address"
                },
                {
                    "internalType": "address",
                    "name": "operator",
                    "type": "address"
                }
            ],
            "name": "isApprovedForAll",
            "outputs": [
                {
                    "internalType": "bool",
                    "name": "",
                    "type": "bool"
                }
            ],
            "stateMutability": "view",
            "type": "function"
        },
        {
            "inputs": [
                {
                    "internalType": "uint256",
                    "name": "kg",
                    "type": "uint256"
                }
            ],
            "name": "kgToTokens",
            "outputs": [
                {
                    "internalType": "uint256",
                    "name": "",
                    "type": "uint256"
                }
            ],
            "stateMutability": "pure",
            "type": "function"
        },
        {
            "inputs": [
                {
                    "internalType": "uint256",
                    "name": "",
                    "type": "uint256"
                }
            ],
            "name": "materialNames",
            "outputs": [
                {
                    "internalType": "string",
                    "name": "",
                    "type": "string"
                }
            ],
            "stateMutability": "view",
            "type": "function"
        },
        {
            "inputs": [
                {
                    "internalType": "uint256",
                    "name": "",
                    "type": "uint256"
                }
            ],
            "name": "materialSymbols",
            "outputs": [
                {
                    "internalType": "string",
                    "name": "",
                    "type": "string"
                }
            ],
            "stateMutability": "view",
            "type": "function"
        },
        {
            "inputs": [
                {
                    "internalType": "uint256",
                    "name": "aluminumKg",
                    "type": "uint256"
                },
                {
                    "internalType": "uint256",
                    "name": "glassKg",
                    "type": "uint256"
                },
                {
                    "internalType": "uint256",
                    "name": "siliconKg",
                    "type": "uint256"
                },
                {
                    "internalType": "uint256",
                    "name": "copperKg",
                    "type": "uint256"
                },
                {
                    "internalType": "string",
                    "name": "recycleRecordId",
                    "type": "string"
                }
            ],
            "name": "mintFromRecycle",
            "outputs": [],
            "stateMutability": "nonpayable",
            "type": "function"
        },
        {
            "inputs": [],
            "name": "owner",
            "outputs": [
                {
                    "internalType": "address",
                    "name": "",
                    "type": "address"
                }
            ],
            "stateMutability": "view",
            "type": "function"
        },
        {
            "inputs": [
                {
                    "internalType": "address",
                    "name": "from",
                    "type": "address"
                },
                {
                    "internalType": "uint256",
                    "name": "materialId",
                    "type": "uint256"
                },
                {
                    "internalType": "uint256",
                    "name": "amountTokens",
                    "type": "uint256"
                },
                {
                    "internalType": "string",
                    "name": "redemptionId",
                    "type": "string"
                }
            ],
            "name": "redeemMaterial",
            "outputs": [],
            "stateMutability": "nonpayable",
            "type": "function"
        },
        {
            "inputs": [],
            "name": "renounceOwnership",
            "outputs": [],
            "stateMutability": "nonpayable",
            "type": "function"
        },
        {
            "inputs": [
                {
                    "internalType": "address",
                    "name": "from",
                    "type": "address"
                },
                {
                    "internalType": "address",
                    "name": "to",
                    "type": "address"
                },
                {
                    "internalType": "uint256[]",
                    "name": "ids",
                    "type": "uint256[]"
                },
                {
                    "internalType": "uint256[]",
                    "name": "values",
                    "type": "uint256[]"
                },
                {
                    "internalType": "bytes",
                    "name": "data",
                    "type": "bytes"
                }
            ],
            "name": "safeBatchTransferFrom",
            "outputs": [],
            "stateMutability": "nonpayable",
            "type": "function"
        },
        {
            "inputs": [
                {
                    "internalType": "address",
                    "name": "from",
                    "type": "address"
                },
                {
                    "internalType": "address",
                    "name": "to",
                    "type": "address"
                },
                {
                    "internalType": "uint256",
                    "name": "id",
                    "type": "uint256"
                },
                {
                    "internalType": "uint256",
                    "name": "value",
                    "type": "uint256"
                },
                {
                    "internalType": "bytes",
                    "name": "data",
                    "type": "bytes"
                }
            ],
            "name": "safeTransferFrom",
            "outputs": [],
            "stateMutability": "nonpayable",
            "type": "function"
        },
        {
            "inputs": [
                {
                    "internalType": "address",
                    "name": "operator",
                    "type": "address"
                },
                {
                    "internalType": "bool",
                    "name": "approved",
                    "type": "bool"
                }
            ],
            "name": "setApprovalForAll",
            "outputs": [],
            "stateMutability": "nonpayable",
            "type": "function"
        },
        {
            "inputs": [
                {
                    "internalType": "address",
                    "name": "operator",
                    "type": "address"
                },
                {
                    "internalType": "bool",
                    "name": "authorized",
                    "type": "bool"
                }
            ],
            "name": "setOperator",
            "outputs": [],
            "stateMutability": "nonpayable",
            "type": "function"
        },
        {
            "inputs": [
                {
                    "internalType": "address",
                    "name": "newWallet",
                    "type": "address"
                }
            ],
            "name": "setTreasuryWallet",
            "outputs": [],
            "stateMutability": "nonpayable",
            "type": "function"
        },
        {
            "inputs": [
                {
                    "internalType": "string",
                    "name": "newuri",
                    "type": "string"
                }
            ],
            "name": "setURI",
            "outputs": [],
            "stateMutability": "nonpayable",
            "type": "function"
        },
        {
            "inputs": [
                {
                    "internalType": "bytes4",
                    "name": "interfaceId",
                    "type": "bytes4"
                }
            ],
            "name": "supportsInterface",
            "outputs": [
                {
                    "internalType": "bool",
                    "name": "",
                    "type": "bool"
                }
            ],
            "stateMutability": "view",
            "type": "function"
        },
        {
            "inputs": [
                {
                    "internalType": "uint256",
                    "name": "tokens",
                    "type": "uint256"
                }
            ],
            "name": "tokensToKg",
            "outputs": [
                {
                    "internalType": "uint256",
                    "name": "",
                    "type": "uint256"
                }
            ],
            "stateMutability": "pure",
            "type": "function"
        },
        {
            "inputs": [],
            "name": "totalSupply",
            "outputs": [
                {
                    "internalType": "uint256",
                    "name": "",
                    "type": "uint256"
                }
            ],
            "stateMutability": "view",
            "type": "function"
        },
        {
            "inputs": [
                {
                    "internalType": "uint256",
                    "name": "id",
                    "type": "uint256"
                }
            ],
            "name": "totalSupply",
            "outputs": [
                {
                    "internalType": "uint256",
                    "name": "",
                    "type": "uint256"
                }
            ],
            "stateMutability": "view",
            "type": "function"
        },
        {
            "inputs": [
                {
                    "internalType": "address",
                    "name": "newOwner",
                    "type": "address"
                }
            ],
            "name": "transferOwnership",
            "outputs": [],
            "stateMutability": "nonpayable",
            "type": "function"
        },
        {
            "inputs": [
                {
                    "internalType": "address",
                    "name": "to",
                    "type": "address"
                },
                {
                    "internalType": "uint256",
                    "name": "materialId",
                    "type": "uint256"
                },
                {
                    "internalType": "uint256",
                    "name": "amountTokens",
                    "type": "uint256"
                },
                {
                    "internalType": "string",
                    "name": "orderId",
                    "type": "string"
                }
            ],
            "name": "transferToBuyer",
            "outputs": [],
            "stateMutability": "nonpayable",
            "type": "function"
        },
        {
            "inputs": [],
            "name": "treasuryWallet",
            "outputs": [
                {
                    "internalType": "address",
                    "name": "",
                    "type": "address"
                }
            ],
            "stateMutability": "view",
            "type": "function"
        },
        {
            "inputs": [
                {
                    "internalType": "uint256",
                    "name": "tokenId",
                    "type": "uint256"
                }
            ],
            "name": "uri",
            "outputs": [
                {
                    "internalType": "string",
                    "name": "",
                    "type": "string"
                }
            ],
            "stateMutability": "view",
            "type": "function"
        }
    ],
    "bytecode": "0x60806040523480156200001157600080fd5b506040516200308c3803806200308c833981016040819052620000349162000488565b338162000041816200040e565b506001600160a01b0381166200007257604051631e4fbdf760e01b8152600060048201526024015b60405180910390fd5b6200007d8162000420565b506001600160a01b038216620000d65760405162461bcd60e51b815260206004820152601760248201527f496e76616c69642074726561737572792077616c6c6574000000000000000000604482015260640162000069565b600980546001600160a01b0319166001600160a01b038416179055604080518082019091526012815271416c756d696e696f2052656369636c61646f60701b6020808301919091526001600052600690527f3e5fec24aa4dc4e5aee2e025e51e1392c72a2500577559fae9665c6d52bd6a31906200015590826200060d565b5060408051808201909152601481527f56696472696f20536f6c6172205072656d69756d0000000000000000000000006020808301919091526002600052600690527f8819ef417987f8ae7a81f42cdfb18815282fe989326fbff903d13cf0e03ace2990620001c590826200060d565b5060408051808201909152601281527153696c6963696f205075726966696361646f60701b6020808301919091526003600052600690527f75f96ab15d697e93042dc45b5c896c4b27e89bb6eaf39475c5c371cb2513f7d2906200022a90826200060d565b5060408051808201909152601081526f436f627265205265637570657261646f60801b6020808301919091526004600052600690527fc5069e24aaadb2addc3e52e868fcf3f4f8acf5a87e24300992fd4540c2a87eed906200028d90826200060d565b5060408051808201909152600481526372414c5560e01b6020808301919091526001600052600790527fb39221ace053465ec3453ce2b36430bd138b997ecea25c1043da0c366812b82890620002e490826200060d565b5060408051808201909152600481526372474c5360e01b6020808301919091526002600052600790527fb7c774451310d1be4108bc180d1b52823cb0ee0274a6c0081bcaf94f115fb96d906200033b90826200060d565b506040805180820190915260048152631c94d25360e21b6020808301919091526003600052600790527f3be6fd20d5acfde5b873b48692cd31f4d3c7e8ee8a813af4696af8859e5ca6c6906200039290826200060d565b5060408051808201909152600480825263072434f560e41b602080840191909152600091909152600790527fb805995a7ec585a251200611a61d179cfd7fb105e1ab17dc415a7336783786f790620003eb90826200060d565b5050336000908152600860205260409020805460ff1916600117905550620006d9565b60026200041c82826200060d565b5050565b600580546001600160a01b038381166001600160a01b0319831681179093556040519116919082907f8be0079c531659141344cd1fd0a4f28419497f9722a3daafe3b4186f6b6457e090600090a35050565b634e487b7160e01b600052604160045260246000fd5b600080604083850312156200049c57600080fd5b82516001600160a01b0381168114620004b457600080fd5b602084810151919350906001600160401b0380821115620004d457600080fd5b818601915086601f830112620004e957600080fd5b815181811115620004fe57620004fe62000472565b604051601f8201601f19908116603f0116810190838211818310171562000529576200052962000472565b8160405282815289868487010111156200054257600080fd5b600093505b8284101562000566578484018601518185018701529285019262000547565b60008684830101528096505050505050509250929050565b600181811c908216806200059357607f821691505b602082108103620005b457634e487b7160e01b600052602260045260246000fd5b50919050565b601f8211156200060857600081815260208120601f850160051c81016020861015620005e35750805b601f850160051c820191505b818110156200060457828155600101620005ef565b5050505b505050565b81516001600160401b0381111562000629576200062962000472565b62000641816200063a84546200057e565b84620005ba565b602080601f831160018114620006795760008415620006605750858301515b600019600386901b1c1916600185901b17855562000604565b600085815260208120601f198616915b82811015620006aa5788860151825594840194600190910190840162000689565b5085821015620006c95787850151600019600388901b60f8161c191681555b5050505050600190811b01905550565b6129a380620006e96000396000f3fe608060405234801561001057600080fd5b50600436106102315760003560e01c80638da5cb5b11610130578063c53d6ce1116100b8578063f242432a1161007c578063f242432a146104f2578063f2fde38b14610505578063f5298aca14610518578063fc5bb15c1461052b578063ff34db6c1461053357600080fd5b8063c53d6ce11461049e578063db80f5ea146104b1578063dbe3aea4146104c4578063e2fc6da7146104d7578063e985e9c5146104df57600080fd5b8063a22cb465116100ff578063a22cb4651461041d578063a386e8d614610430578063a8602fea14610458578063bb38c6aa1461046b578063bd85b0391461047e57600080fd5b80638da5cb5b146103f45780638f8b43ed1461040557806390f5f0cd1461040d5780639cf7bfdf1461041557600080fd5b80633e74be6e116101be5780636ac55a45116101825780636ac55a45146103ab5780636b20c454146103b3578063715018a6146103c657806372762bab146103ce5780637ff92e4c146103e157600080fd5b80633e74be6e146103185780634626402b1461032b5780634e1273f4146103565780634f558e7914610376578063558a72971461039857600080fd5b806318160ddd1161020557806318160ddd146102b4578063181d989b146102bc5780632eb2c2d6146102df578063371f8df7146102f257806339da1d8e1461030557600080fd5b8062fdd58e1461023657806301ffc9a71461025c57806302fe53051461027f5780630e89341c14610294575b600080fd5b610249610244366004611df2565b610546565b6040519081526020015b60405180910390f35b61026f61026a366004611e32565b61056e565b6040519015158152602001610253565b61029261028d366004611eec565b6105be565b005b6102a76102a2366004611f3c565b6105d2565b6040516102539190611fa5565b600454610249565b61026f6102ca366004611fb8565b60086020526000908152604090205460ff1681565b6102926102ed366004612081565b61060d565b6102a7610300366004611f3c565b610679565b610249610313366004611f3c565b610713565b6102926103263660046121b6565b610720565b60095461033e906001600160a01b031681565b6040516001600160a01b039091168152602001610253565b610369610364366004612260565b610927565b604051610253919061235a565b61026f610384366004611f3c565b600090815260036020526040902054151590565b6102926103a636600461236d565b6109fb565b610249600281565b6102926103c13660046123a9565b610a62565b610292610ac6565b6102926103dc36600461241c565b610ada565b6102496103ef366004611f3c565b610c8e565b6005546001600160a01b031661033e565b610249600181565b610249600481565b610249600381565b61029261042b36600461236d565b610c9b565b610438610caa565b604080519485526020850193909352918301526060820152608001610253565b610292610466366004611fb8565b610d47565b610292610479366004612483565b610de8565b61024961048c366004611f3c565b60009081526003602052604090205490565b6104386104ac366004611fb8565b61108e565b6102926104bf36600461241c565b6110cf565b6102a76104d2366004611f3c565b6111bb565b610249600a81565b61026f6104ed3660046124ec565b6111d4565b61029261050036600461251f565b611202565b610292610513366004611fb8565b611261565b610292610526366004612583565b61129c565b6104386112d2565b610249610541366004611df2565b611340565b6000818152602081815260408083206001600160a01b03861684529091529020545b92915050565b60006001600160e01b03198216636cdb3d1360e11b148061059f57506001600160e01b031982166303a24d0760e21b145b8061056857506301ffc9a760e01b6001600160e01b0319831614610568565b6105c661135f565b6105cf8161138c565b50565b60606105dd82611398565b6105e68361142c565b6040516020016105f79291906125b6565b6040516020818303038152906040529050919050565b336001600160a01b038616811480159061062e575061062c86826111d4565b155b156106645760405163711bec9160e11b81526001600160a01b038083166004830152871660248201526044015b60405180910390fd5b61067186868686866114be565b505050505050565b60076020526000908152604090208054610692906125f5565b80601f01602080910402602001604051908101604052809291908181526020018280546106be906125f5565b801561070b5780601f106106e05761010080835404028352916020019161070b565b820191906000526020600020905b8154815290600101906020018083116106ee57829003601f168201915b505050505081565b6000610568600a83612645565b3360009081526008602052604090205460ff168061074857506005546001600160a01b031633145b6107645760405162461bcd60e51b815260040161065b9061265c565b6001600160a01b0387166107ae5760405162461bcd60e51b8152602060048201526011602482015270125b9d985b1a59081c9958da5c1a595b9d607a1b604482015260640161065b565b8483146107f65760405162461bcd60e51b8152602060048201526016602482015275082e4e4c2f2e640d8cadccee8d040dad2e6dac2e8c6d60531b604482015260640161065b565b600954604080516020808902828101820190935288825261087f936001600160a01b0316928b92918b918b9182919085019084908082843760009201919091525050604080516020808c0282810182019093528b82529093508b92508a9182918501908490808284376000920182905250604080516020810190915290815292506114be915050565b60005b8581101561091d5786868281811061089c5761089c6126a7565b60095460209091029290920135916001600160a01b03808c169250167f6c4a7d539272cdde7d5a84b69f417e7e581e3181f1c286b9a2abcbcef39adcb98888868181106108eb576108eb6126a7565b905060200201358787604051610903939291906126e6565b60405180910390a48061091581612709565b915050610882565b5050505050505050565b606081518351146109585781518351604051635b05999160e01b81526004810192909252602482015260440161065b565b600083516001600160401b0381111561097357610973611e4f565b60405190808252806020026020018201604052801561099c578160200160208202803683370190505b50905060005b84518110156109f3576020808202860101516109c690602080840287010151610546565b8282815181106109d8576109d86126a7565b60209081029190910101526109ec81612709565b90506109a2565b509392505050565b610a0361135f565b6001600160a01b038216600081815260086020908152604091829020805460ff191685151590811790915591519182527fc176fcf7d48a6aca0d96d3b3201f7add47c4af04ce9a51f5f4eb15d528c46e21910160405180910390a25050565b6001600160a01b0383163314801590610a825750610a8083336111d4565b155b15610ab657335b60405163711bec9160e11b81526001600160a01b039182166004820152908416602482015260440161065b565b610ac1838383611525565b505050565b610ace61135f565b610ad8600061156b565b565b3360009081526008602052604090205460ff1680610b0257506005546001600160a01b031633145b610b1e5760405162461bcd60e51b815260040161065b9061265c565b6001600160a01b038516610b685760405162461bcd60e51b8152602060048201526011602482015270125b9d985b1a59081c9958da5c1a595b9d607a1b604482015260640161065b565b60018410158015610b7a575060048411155b610bbc5760405162461bcd60e51b8152602060048201526013602482015272125b9d985b1a59081b585d195c9a585b081251606a1b604482015260640161065b565b60008311610c0c5760405162461bcd60e51b815260206004820152601d60248201527f416d6f756e74206d7573742062652067726561746572207468616e2030000000604482015260640161065b565b600954604080516020810190915260008152610c37916001600160a01b0316908790879087906115bd565b60095460405185916001600160a01b03808916929116907f6c4a7d539272cdde7d5a84b69f417e7e581e3181f1c286b9a2abcbcef39adcb990610c7f908890889088906126e6565b60405180910390a45050505050565b6000610568600a83612722565b610ca633838361164b565b5050565b60036020527fa15bc60c955c405d20d9149c709e2460f1c2d9a497496a7f46004d1772c3054c547fc3a24b0501bd2c13a7e57f2db4369ec4c223447539fc0724a9d55ac4a06ebd4d547fcbc4e5fb02c3d1de23a9f1e014b4d2ee5aeaea9505df5e855c9210bf472495af54600460009081527f83ec6a1f0257b830b5e016457c9cf1435391bf56cc98f369a58a54fe93772465545b905090919293565b610d4f61135f565b6001600160a01b038116610d965760405162461bcd60e51b815260206004820152600e60248201526d125b9d985b1a59081dd85b1b195d60921b604482015260640161065b565b600980546001600160a01b038381166001600160a01b0319831681179093556040519116919082907fa982575859d7ad2f390dc12b23f7dab8bbda047f9d0140ac68344b27bf34bfb490600090a35050565b3360009081526008602052604090205460ff1680610e1057506005546001600160a01b031633145b610e2c5760405162461bcd60e51b815260040161065b9061265c565b60408051600480825260a0820190925260009160208201608080368337505060408051600480825260a08201909252929350600092915060208201608080368337019050509050600182600081518110610e8857610e886126a7565b602002602001018181525050600282600181518110610ea957610ea96126a7565b602002602001018181525050600382600281518110610eca57610eca6126a7565b602002602001018181525050600482600381518110610eeb57610eeb6126a7565b6020908102919091010152610f01600a89612645565b81600081518110610f1457610f146126a7565b6020908102919091010152610f2a600a88612645565b81600181518110610f3d57610f3d6126a7565b6020908102919091010152610f53600a87612645565b81600281518110610f6657610f666126a7565b6020908102919091010152610f7c600a86612645565b81600381518110610f8f57610f8f6126a7565b602002602001018181525050610fcb600960009054906101000a90046001600160a01b03168383604051806020016040528060008152506116e1565b60095481516001600160a01b03909116907f9b4c9851178b93bf6cf0c9746f091131cfaa3256ccda07c27d47887865897f9590839060009061100f5761100f6126a7565b60200260200101518360018151811061102a5761102a6126a7565b602002602001015184600281518110611045576110456126a7565b602002602001015185600381518110611060576110606126a7565b6020026020010151898960405161107c96959493929190612744565b60405180910390a25050505050505050565b60008060008061109f856001610546565b93506110ac856002610546565b92506110b9856003610546565b91506110c6856004610546565b90509193509193565b3360009081526008602052604090205460ff16806110f757506005546001600160a01b031633145b6111135760405162461bcd60e51b815260040161065b9061265c565b8261111e8686610546565b10156111635760405162461bcd60e51b8152602060048201526014602482015273496e73756666696369656e742062616c616e636560601b604482015260640161065b565b61116e85858561171f565b83856001600160a01b03167f073d40225a84a56ba877e257590fb86c489ee19d7bad52f90887cd872acd427d8585856040516111ac939291906126e6565b60405180910390a35050505050565b60066020526000908152604090208054610692906125f5565b6001600160a01b03918216600090815260016020908152604080832093909416825291909152205460ff1690565b336001600160a01b0386168114801590611223575061122186826111d4565b155b156112545760405163711bec9160e11b81526001600160a01b0380831660048301528716602482015260440161065b565b61067186868686866115bd565b61126961135f565b6001600160a01b03811661129357604051631e4fbdf760e01b81526000600482015260240161065b565b6105cf8161156b565b6001600160a01b03831633148015906112bc57506112ba83336111d4565b155b156112c75733610a89565b610ac183838361171f565b6009546000908190819081906112f2906001600160a01b03166001610546565b60095490945061130c906001600160a01b03166002610546565b600954909350611326906001600160a01b03166003610546565b600954909250610d3f906001600160a01b03166004610546565b6000600a61134e8484610546565b6113589190612722565b9392505050565b6005546001600160a01b03163314610ad85760405163118cdaa760e01b815233600482015260240161065b565b6002610ca682826127c2565b6060600280546113a7906125f5565b80601f01602080910402602001604051908101604052809291908181526020018280546113d3906125f5565b80156114205780601f106113f557610100808354040283529160200191611420565b820191906000526020600020905b81548152906001019060200180831161140357829003601f168201915b50505050509050919050565b6060600061143983611787565b60010190506000816001600160401b0381111561145857611458611e4f565b6040519080825280601f01601f191660200182016040528015611482576020820181803683370190505b5090508181016020015b600019016f181899199a1a9b1b9c1cb0b131b232b360811b600a86061a8153600a850494508461148c57509392505050565b6001600160a01b0384166114e857604051632bfa23e760e11b81526000600482015260240161065b565b6001600160a01b03851661151157604051626a0d4560e21b81526000600482015260240161065b565b61151e858585858561185f565b5050505050565b6001600160a01b03831661154e57604051626a0d4560e21b81526000600482015260240161065b565b610ac183600084846040518060200160405280600081525061185f565b600580546001600160a01b038381166001600160a01b0319831681179093556040519116919082907f8be0079c531659141344cd1fd0a4f28419497f9722a3daafe3b4186f6b6457e090600090a35050565b6001600160a01b0384166115e757604051632bfa23e760e11b81526000600482015260240161065b565b6001600160a01b03851661161057604051626a0d4560e21b81526000600482015260240161065b565b60408051600180825260208201869052818301908152606082018590526080820190925290611642878784848761185f565b50505050505050565b6001600160a01b0382166116745760405162ced3e160e81b81526000600482015260240161065b565b6001600160a01b03838116600081815260016020908152604080832094871680845294825291829020805460ff191686151590811790915591519182527f17307eab39ab6107e8899845ad3d59bd9653f200f220920489ca2b5937696c31910160405180910390a3505050565b6001600160a01b03841661170b57604051632bfa23e760e11b81526000600482015260240161065b565b61171960008585858561185f565b50505050565b6001600160a01b03831661174857604051626a0d4560e21b81526000600482015260240161065b565b604080516001808252602082018590528183019081526060820184905260a0820190925260006080820181815291929161151e9187918590859061185f565b60008072184f03e93ff9f4daa797ed6e38ed64bf6a1f0160401b83106117c65772184f03e93ff9f4daa797ed6e38ed64bf6a1f0160401b830492506040015b6d04ee2d6d415b85acef810000000083106117f2576d04ee2d6d415b85acef8100000000830492506020015b662386f26fc10000831061181057662386f26fc10000830492506010015b6305f5e1008310611828576305f5e100830492506008015b612710831061183c57612710830492506004015b6064831061184e576064830492506002015b600a83106105685760010192915050565b61186b858585856118b2565b6001600160a01b0384161561151e57825133906001036118a4576020848101519084015161189d8389898585896118be565b5050610671565b6106718187878787876119e2565b61171984848484611acb565b6001600160a01b0384163b156106715760405163f23a6e6160e01b81526001600160a01b0385169063f23a6e61906119029089908990889088908890600401612881565b6020604051808303816000875af192505050801561193d575060408051601f3d908101601f1916820190925261193a918101906128c6565b60015b6119a6573d80801561196b576040519150601f19603f3d011682016040523d82523d6000602084013e611970565b606091505b50805160000361199e57604051632bfa23e760e11b81526001600160a01b038616600482015260240161065b565b805160208201fd5b6001600160e01b0319811663f23a6e6160e01b1461164257604051632bfa23e760e11b81526001600160a01b038616600482015260240161065b565b6001600160a01b0384163b156106715760405163bc197c8160e01b81526001600160a01b0385169063bc197c8190611a2690899089908890889088906004016128e3565b6020604051808303816000875af1925050508015611a61575060408051601f3d908101601f19168201909252611a5e918101906128c6565b60015b611a8f573d80801561196b576040519150601f19603f3d011682016040523d82523d6000602084013e611970565b6001600160e01b0319811663bc197c8160e01b1461164257604051632bfa23e760e11b81526001600160a01b038616600482015260240161065b565b611ad784848484611bc8565b6001600160a01b038416611b60576000805b8351811015611b465760208181028481018201519086018201516000908152600390925260408220805491928392611b22908490612935565b90915550611b3290508184612935565b92505080611b3f90612709565b9050611ae9565b508060046000828254611b599190612935565b9091555050505b6001600160a01b038316611719576000805b8351811015611bb7576020818102848101820151908601820151600090815260039092526040909120805482900390559190910190611bb081612709565b9050611b72565b506004805491909103905550505050565b8051825114611bf75781518151604051635b05999160e01b81526004810192909252602482015260440161065b565b3360005b8351811015611d06576020818102858101820151908501909101516001600160a01b03881615611cae576000828152602081815260408083206001600160a01b038c16845290915290205481811015611c87576040516303dee4c560e01b81526001600160a01b038a16600482015260248101829052604481018390526064810184905260840161065b565b6000838152602081815260408083206001600160a01b038d16845290915290209082900390555b6001600160a01b03871615611cf3576000828152602081815260408083206001600160a01b038b16845290915281208054839290611ced908490612935565b90915550505b505080611cff90612709565b9050611bfb565b508251600103611d875760208301516000906020840151909150856001600160a01b0316876001600160a01b0316846001600160a01b03167fc3d58168c5ae7397731d063d5bbf3d657854427343f4c083240f7aacaa2d0f628585604051611d78929190918252602082015260400190565b60405180910390a4505061151e565b836001600160a01b0316856001600160a01b0316826001600160a01b03167f4a39dc06d4c0dbc64b70af90fd698a233a518aa5d07e595d983b8c0526c8f7fb8686604051610c7f929190612948565b80356001600160a01b0381168114611ded57600080fd5b919050565b60008060408385031215611e0557600080fd5b611e0e83611dd6565b946020939093013593505050565b6001600160e01b0319811681146105cf57600080fd5b600060208284031215611e4457600080fd5b813561135881611e1c565b634e487b7160e01b600052604160045260246000fd5b604051601f8201601f191681016001600160401b0381118282101715611e8d57611e8d611e4f565b604052919050565b60006001600160401b03831115611eae57611eae611e4f565b611ec1601f8401601f1916602001611e65565b9050828152838383011115611ed557600080fd5b828260208301376000602084830101529392505050565b600060208284031215611efe57600080fd5b81356001600160401b03811115611f1457600080fd5b8201601f81018413611f2557600080fd5b611f3484823560208401611e95565b949350505050565b600060208284031215611f4e57600080fd5b5035919050565b60005b83811015611f70578181015183820152602001611f58565b50506000910152565b60008151808452611f91816020860160208601611f55565b601f01601f19169290920160200192915050565b6020815260006113586020830184611f79565b600060208284031215611fca57600080fd5b61135882611dd6565b60006001600160401b03821115611fec57611fec611e4f565b5060051b60200190565b600082601f83011261200757600080fd5b8135602061201c61201783611fd3565b611e65565b82815260059290921b8401810191818101908684111561203b57600080fd5b8286015b84811015612056578035835291830191830161203f565b509695505050505050565b600082601f83011261207257600080fd5b61135883833560208501611e95565b600080600080600060a0868803121561209957600080fd5b6120a286611dd6565b94506120b060208701611dd6565b935060408601356001600160401b03808211156120cc57600080fd5b6120d889838a01611ff6565b945060608801359150808211156120ee57600080fd5b6120fa89838a01611ff6565b9350608088013591508082111561211057600080fd5b5061211d88828901612061565b9150509295509295909350565b60008083601f84011261213c57600080fd5b5081356001600160401b0381111561215357600080fd5b6020830191508360208260051b850101111561216e57600080fd5b9250929050565b60008083601f84011261218757600080fd5b5081356001600160401b0381111561219e57600080fd5b60208301915083602082850101111561216e57600080fd5b60008060008060008060006080888a0312156121d157600080fd5b6121da88611dd6565b965060208801356001600160401b03808211156121f657600080fd5b6122028b838c0161212a565b909850965060408a013591508082111561221b57600080fd5b6122278b838c0161212a565b909650945060608a013591508082111561224057600080fd5b5061224d8a828b01612175565b989b979a50959850939692959293505050565b6000806040838503121561227357600080fd5b82356001600160401b038082111561228a57600080fd5b818501915085601f83011261229e57600080fd5b813560206122ae61201783611fd3565b82815260059290921b840181019181810190898411156122cd57600080fd5b948201945b838610156122f2576122e386611dd6565b825294820194908201906122d2565b9650508601359250508082111561230857600080fd5b5061231585828601611ff6565b9150509250929050565b600081518084526020808501945080840160005b8381101561234f57815187529582019590820190600101612333565b509495945050505050565b602081526000611358602083018461231f565b6000806040838503121561238057600080fd5b61238983611dd6565b91506020830135801515811461239e57600080fd5b809150509250929050565b6000806000606084860312156123be57600080fd5b6123c784611dd6565b925060208401356001600160401b03808211156123e357600080fd5b6123ef87838801611ff6565b9350604086013591508082111561240557600080fd5b5061241286828701611ff6565b9150509250925092565b60008060008060006080868803121561243457600080fd5b61243d86611dd6565b9450602086013593506040860135925060608601356001600160401b0381111561246657600080fd5b61247288828901612175565b969995985093965092949392505050565b60008060008060008060a0878903121561249c57600080fd5b8635955060208701359450604087013593506060870135925060808701356001600160401b038111156124ce57600080fd5b6124da89828a01612175565b979a9699509497509295939492505050565b600080604083850312156124ff57600080fd5b61250883611dd6565b915061251660208401611dd6565b90509250929050565b600080600080600060a0868803121561253757600080fd5b61254086611dd6565b945061254e60208701611dd6565b9350604086013592506060860135915060808601356001600160401b0381111561257757600080fd5b61211d88828901612061565b60008060006060848603121561259857600080fd5b6125a184611dd6565b95602085013595506040909401359392505050565b600083516125c8818460208801611f55565b8351908301906125dc818360208801611f55565b64173539b7b760d91b9101908152600501949350505050565b600181811c9082168061260957607f821691505b60208210810361262957634e487b7160e01b600052602260045260246000fd5b50919050565b634e487b7160e01b600052601160045260246000fd5b80820281158282048414176105685761056861262f565b6020808252602b908201527f526166697175694d6174657269616c733a2063616c6c6572206973206e6f742060408201526a30b71037b832b930ba37b960a91b606082015260800190565b634e487b7160e01b600052603260045260246000fd5b81835281816020850137506000828201602090810191909152601f909101601f19169091010190565b8381526040602082015260006127006040830184866126bd565b95945050505050565b60006001820161271b5761271b61262f565b5060010190565b60008261273f57634e487b7160e01b600052601260045260246000fd5b500490565b86815285602082015284604082015283606082015260a06080820152600061277060a0830184866126bd565b98975050505050505050565b601f821115610ac157600081815260208120601f850160051c810160208610156127a35750805b601f850160051c820191505b81811015610671578281556001016127af565b81516001600160401b038111156127db576127db611e4f565b6127ef816127e984546125f5565b8461277c565b602080601f831160018114612824576000841561280c5750858301515b600019600386901b1c1916600185901b178555610671565b600085815260208120601f198616915b8281101561285357888601518255948401946001909101908401612834565b50858210156128715787850151600019600388901b60f8161c191681555b5050505050600190811b01905550565b6001600160a01b03868116825285166020820152604081018490526060810183905260a0608082018190526000906128bb90830184611f79565b979650505050505050565b6000602082840312156128d857600080fd5b815161135881611e1c565b6001600160a01b0386811682528516602082015260a06040820181905260009061290f9083018661231f565b8281036060840152612921818661231f565b905082810360808401526127708185611f79565b808201808211156105685761056861262f565b60408152600061295b604083018561231f565b8281036020840152612700818561231f56fea26469706673582212204ca42fcdf7aa0f7a6f432a0010876c511ffb8b6e473abdf88af2d1ac50e3d32364736f6c63430008140033",
    "linkReferences": {},
    "deployedLinkReferences": {}
}